{"project/contracts/GreenToken.sol":{"GreenToken":{"abi":[{"inputs":[{"internalType":"uint256","name":"initialSupply","type":"uint256"}],"stateMutability":"nonpayable","type":"constructor"},{"anonymous":false,"inputs":[{"indexed":true,"internalType":"address","name":"from","type":"address"},{"indexed":true,"internalType":"address","name":"to","type":"address"},{"indexed":false,"internalType":"uint256","name":"value","type":"uint256"}],"name":"Transfer","type":"event"},{"inputs":[{"internalType":"address","name":"","type":"address"}],"name":"balanceOf","outputs":[{"internalType":"uint256","name":"","type":"uint256"}],"stateMutability":"view","type":"function"},{"inputs":[],"name":"decimals","outputs":[{"internalType":"uint8","name":"","type":"uint8"}],"stateMutability":"view","type":"function"},{"inputs":[],"name":"name","outputs":[{"internalType":"string","name":"","type":"string"}],"stateMutability":"view","type":"function"},{"inputs":[],"name":"symbol","outputs":[{"internalType":"string","name":"","type":"string"}],"stateMutability":"view","type":"function"},{"inputs":[],"name":"totalSupply","outputs":[{"internalType":"uint256","name":"","type":"uint256"}],"stateMutability":"view","type":"function"},{"inputs":[{"internalType":"address","name":"to","type":"address"},{"internalType":"uint256","name":"value","type":"uint256"}],"name":"transfer","outputs":[{"internalType":"bool","name":"success","type":"bool"}],"stateMutability":"nonpayable","type":"function"}],"evm":{"bytecode":{"linkReferences":{},"object":"60806040526040518060400160405280600a81526020017f477265656e546f6b656e000000000000000000000000000000000000000000008152505f9081620000499190620003c0565b506040518060400160405280600281526020017f475400000000000000000000000000000000000000000000000000000000000081525060019081620000909190620003c0565b50601260025f6101000a81548160ff021916908360ff160217905550348015620000b8575f80fd5b5060405162000f0338038062000f038339818101604052810190620000de9190620004d7565b60025f9054906101000a900460ff1660ff16600a620000fe919062000684565b816200010b9190620006d4565b60038190555060035460045f3373ffffffffffffffffffffffffffffffffffffffff1673ffffffffffffffffffffffffffffffffffffffff1681526020019081526020015f2081905550506200071e565b5f81519050919050565b7f4e487b71000000000000000000000000000000000000000000000000000000005f52604160045260245ffd5b7f4e487b71000000000000000000000000000000000000000000000000000000005f52602260045260245ffd5b5f6002820490506001821680620001d857607f821691505b602082108103620001ee57620001ed62000193565b5b50919050565b5f819050815f5260205f209050919050565b5f6020601f8301049050919050565b5f82821b905092915050565b5f60088302620002527fffffffffffffffffffffffffffffffffffffffffffffffffffffffffffffffff8262000215565b6200025e868362000215565b95508019841693508086168417925050509392505050565b5f819050919050565b5f819050919050565b5f620002a8620002a26200029c8462000276565b6200027f565b62000276565b9050919050565b5f819050919050565b620002c38362000288565b620002db620002d282620002af565b84845462000221565b825550505050565b5f90565b620002f1620002e3565b620002fe818484620002b8565b505050565b5b818110156200032557620003195f82620002e7565b60018101905062000304565b5050565b601f82111562000374576200033e81620001f4565b620003498462000206565b8101602085101562000359578190505b62000371620003688562000206565b83018262000303565b50505b505050565b5f82821c905092915050565b5f620003965f198460080262000379565b1980831691505092915050565b5f620003b0838362000385565b9150826002028217905092915050565b620003cb826200015c565b67ffffffffffffffff811115620003e757620003e662000166565b5b620003f38254620001c0565b6200040082828562000329565b5f60209050601f83116001811462000436575f841562000421578287015190505b6200042d8582620003a3565b8655506200049c565b601f1984166200044686620001f4565b5f5b828110156200046f5784890151825560018201915060208501945060208101905062000448565b868310156200048f57848901516200048b601f89168262000385565b8355505b6001600288020188555050505b505050505050565b5f80fd5b620004b38162000276565b8114620004be575f80fd5b50565b5f81519050620004d181620004a8565b92915050565b5f60208284031215620004ef57620004ee620004a4565b5b5f620004fe84828501620004c1565b91505092915050565b7f4e487b71000000000000000000000000000000000000000000000000000000005f52601160045260245ffd5b5f8160011c9050919050565b5f808291508390505b6001851115620005915780860481111562000569576200056862000507565b5b6001851615620005795780820291505b8081029050620005898562000534565b945062000549565b94509492505050565b5f82620005ab57600190506200067d565b81620005ba575f90506200067d565b8160018114620005d35760028114620005de5762000614565b60019150506200067d565b60ff841115620005f357620005f262000507565b5b8360020a9150848211156200060d576200060c62000507565b5b506200067d565b5060208310610133831016604e8410600b84101617156200064e5782820a90508381111562000648576200064762000507565b5b6200067d565b6200065d848484600162000540565b9250905081840481111562000677576200067662000507565b5b81810290505b9392505050565b5f620006908262000276565b91506200069d8362000276565b9250620006cc7fffffffffffffffffffffffffffffffffffffffffffffffffffffffffffffffff84846200059a565b905092915050565b5f620006e08262000276565b9150620006ed8362000276565b9250828202620006fd8162000276565b9150828204841483151762000717576200071662000507565b5b5092915050565b6107d7806200072c5f395ff3fe608060405234801561000f575f80fd5b5060043610610060575f3560e01c806306fdde031461006457806318160ddd14610082578063313ce567146100a057806370a08231146100be57806395d89b41146100ee578063a9059cbb1461010c575b5f80fd5b61006c61013c565b60405161007991906104a0565b60405180910390f35b61008a6101c7565b60405161009791906104d8565b60405180910390f35b6100a86101cd565b6040516100b5919061050c565b60405180910390f35b6100d860048036038101906100d39190610583565b6101df565b6040516100e591906104d8565b60405180910390f35b6100f66101f4565b60405161010391906104a0565b60405180910390f35b610126600480360381019061012191906105d8565b610280565b6040516101339190610630565b60405180910390f35b5f805461014890610676565b80601f016020809104026020016040519081016040528092919081815260200182805461017490610676565b80156101bf5780601f10610196576101008083540402835291602001916101bf565b820191905f5260205f20905b8154815290600101906020018083116101a257829003601f168201915b505050505081565b60035481565b60025f9054906101000a900460ff1681565b6004602052805f5260405f205f915090505481565b6001805461020190610676565b80601f016020809104026020016040519081016040528092919081815260200182805461022d90610676565b80156102785780601f1061024f57610100808354040283529160200191610278565b820191905f5260205f20905b81548152906001019060200180831161025b57829003601f168201915b505050505081565b5f8160045f3373ffffffffffffffffffffffffffffffffffffffff1673ffffffffffffffffffffffffffffffffffffffff1681526020019081526020015f20541015610301576040517f08c379a00000000000000000000000000000000000000000000000000000000081526004016102f8906106f0565b60405180910390fd5b8160045f3373ffffffffffffffffffffffffffffffffffffffff1673ffffffffffffffffffffffffffffffffffffffff1681526020019081526020015f205f82825461034d919061073b565b925050819055508160045f8573ffffffffffffffffffffffffffffffffffffffff1673ffffffffffffffffffffffffffffffffffffffff1681526020019081526020015f205f8282546103a0919061076e565b925050819055508273ffffffffffffffffffffffffffffffffffffffff163373ffffffffffffffffffffffffffffffffffffffff167fddf252ad1be2c89b69c2b068fc378daa952ba7f163c4a11628f55a4df523b3ef8460405161040491906104d8565b60405180910390a36001905092915050565b5f81519050919050565b5f82825260208201905092915050565b5f5b8381101561044d578082015181840152602081019050610432565b5f8484015250505050565b5f601f19601f8301169050919050565b5f61047282610416565b61047c8185610420565b935061048c818560208601610430565b61049581610458565b840191505092915050565b5f6020820190508181035f8301526104b88184610468565b905092915050565b5f819050919050565b6104d2816104c0565b82525050565b5f6020820190506104eb5f8301846104c9565b92915050565b5f60ff82169050919050565b610506816104f1565b82525050565b5f60208201905061051f5f8301846104fd565b92915050565b5f80fd5b5f73ffffffffffffffffffffffffffffffffffffffff82169050919050565b5f61055282610529565b9050919050565b61056281610548565b811461056c575f80fd5b50565b5f8135905061057d81610559565b92915050565b5f6020828403121561059857610597610525565b5b5f6105a58482850161056f565b91505092915050565b6105b7816104c0565b81146105c1575f80fd5b50565b5f813590506105d2816105ae565b92915050565b5f80604083850312156105ee576105ed610525565b5b5f6105fb8582860161056f565b925050602061060c858286016105c4565b9150509250929050565b5f8115159050919050565b61062a81610616565b82525050565b5f6020820190506106435f830184610621565b92915050565b7f4e487b71000000000000000000000000000000000000000000000000000000005f52602260045260245ffd5b5f600282049050600182168061068d57607f821691505b6020821081036106a05761069f610649565b5b50919050565b7f4e6f7420656e6f75676820746f6b656e730000000000000000000000000000005f82015250565b5f6106da601183610420565b91506106e5826106a6565b602082019050919050565b5f6020820190508181035f830152610707816106ce565b9050919050565b7f4e487b71000000000000000000000000000000000000000000000000000000005f52601160045260245ffd5b5f610745826104c0565b9150610750836104c0565b92508282039050818111156107685761076761070e565b5b92915050565b5f610778826104c0565b9150610783836104c0565b925082820190508082111561079b5761079a61070e565b5b9291505056fea2646970667358221220ddb3e7f8b5b90c1f8fb1db90b15048bdcb8356ddfe25fc8a0ffcf029248acd6864736f6c63430008140033","opcodes":"PUSH1 0x80 PUSH1 0x40 MSTORE PUSH1 0x40 MLOAD DUP1 PUSH1 0x40 ADD PUSH1 0x40 MSTORE DUP1 PUSH1 0xA DUP2 MSTORE PUSH1 0x20 ADD PUSH32 0x477265656E546F6B656E00000000000000000000000000000000000000000000 DUP2 MSTORE POP PUSH0 SWAP1 DUP2 PUSH3 0x49 SWAP2 SWAP1 PUSH3 0x3C0 JUMP JUMPDEST POP PUSH1 0x40 MLOAD DUP1 PUSH1 0x40 ADD PUSH1 0x40 MSTORE DUP1 PUSH1 0x2 DUP2 MSTORE PUSH1 0x20 ADD PUSH32 0x4754000000000000000000000000000000000000000000000000000000000000 DUP2 MSTORE POP PUSH1 0x1 SWAP1 DUP2 PUSH3 0x90 SWAP2 SWAP1 PUSH3 0x3C0 JUMP JUMPDEST POP PUSH1 0x12 PUSH1 0x2 PUSH0 PUSH2 0x100 EXP DUP2 SLOAD DUP2 PUSH1 0xFF MUL NOT AND SWAP1 DUP4 PUSH1 0xFF AND MUL OR SWAP1 SSTORE POP CALLVALUE DUP1 ISZERO PUSH3 0xB8 JUMPI PUSH0 DUP1 REVERT JUMPDEST POP PUSH1 0x40 MLOAD PUSH3 0xF03 CODESIZE SUB DUP1 PUSH3 0xF03 DUP4 CODECOPY DUP2 DUP2 ADD PUSH1 0x40 MSTORE DUP2 ADD SWAP1 PUSH3 0xDE SWAP2 SWAP1 PUSH3 0x4D7 JUMP JUMPDEST PUSH1 0x2 PUSH0 SWAP1 SLOAD SWAP1 PUSH2 0x100 EXP SWAP1 DIV PUSH1 0xFF AND PUSH1 0xFF AND PUSH1 0xA PUSH3 0xFE SWAP2 SWAP1 PUSH3 0x684 JUMP JUMPDEST DUP2 PUSH3 0x10B SWAP2 SWAP1 PUSH3 0x6D4 JUMP JUMPDEST PUSH1 0x3 DUP2 SWAP1 SSTORE POP PUSH1 0x3 SLOAD PUSH1 0x4 PUSH0 CALLER PUSH20 0xFFFFFFFFFFFFFFFFFFFFFFFFFFFFFFFFFFFFFFFF AND PUSH20 0xFFFFFFFFFFFFFFFFFFFFFFFFFFFFFFFFFFFFFFFF AND DUP2 MSTORE PUSH1 0x20 ADD SWAP1 DUP2 MSTORE PUSH1 0x20 ADD PUSH0 KECCAK256 DUP2 SWAP1 SSTORE POP POP PUSH3 0x71E JUMP JUMPDEST PUSH0 DUP2 MLOAD SWAP1 POP SWAP2 SWAP1 POP JUMP JUMPDEST PUSH32 0x4E487B7100000000000000000000000000000000000000000000000000000000 PUSH0 MSTORE PUSH1 0x41 PUSH1 0x4 MSTORE PUSH1 0x24 PUSH0 REVERT JUMPDEST PUSH32 0x4E487B7100000000000000000000000000000000000000000000000000000000 PUSH0 MSTORE PUSH1 0x22 PUSH1 0x4 MSTORE PUSH1 0x24 PUSH0 REVERT JUMPDEST PUSH0 PUSH1 0x2 DUP3 DIV SWAP1 POP PUSH1 0x1 DUP3 AND DUP1 PUSH3 0x1D8 JUMPI PUSH1 0x7F DUP3 AND SWAP2 POP JUMPDEST PUSH1 0x20 DUP3 LT DUP2 SUB PUSH3 0x1EE JUMPI PUSH3 0x1ED PUSH3 0x193 JUMP JUMPDEST JUMPDEST POP SWAP2 SWAP1 POP JUMP JUMPDEST PUSH0 DUP2 SWAP1 POP DUP2 PUSH0 MSTORE PUSH1 0x20 PUSH0 KECCAK256 SWAP1 POP SWAP2 SWAP1 POP JUMP JUMPDEST PUSH0 PUSH1 0x20 PUSH1 0x1F DUP4 ADD DIV SWAP1 POP SWAP2 SWAP1 POP JUMP JUMPDEST PUSH0 DUP3 DUP3 SHL SWAP1 POP SWAP3 SWAP2 POP POP JUMP JUMPDEST PUSH0 PUSH1 0x8 DUP4 MUL PUSH3 0x252 PUSH32 0xFFFFFFFFFFFFFFFFFFFFFFFFFFFFFFFFFFFFFFFFFFFFFFFFFFFFFFFFFFFFFFFF DUP3 PUSH3 0x215 JUMP JUMPDEST PUSH3 0x25E DUP7 DUP4 PUSH3 0x215 JUMP JUMPDEST SWAP6 POP DUP1 NOT DUP5 AND SWAP4 POP DUP1 DUP7 AND DUP5 OR SWAP3 POP POP POP SWAP4 SWAP3 POP POP POP JUMP JUMPDEST PUSH0 DUP2 SWAP1 POP SWAP2 SWAP1 POP JUMP JUMPDEST PUSH0 DUP2 SWAP1 POP SWAP2 SWAP1 POP JUMP JUMPDEST PUSH0 PUSH3 0x2A8 PUSH3 0x2A2 PUSH3 0x29C DUP5 PUSH3 0x276 JUMP JUMPDEST PUSH3 0x27F JUMP JUMPDEST PUSH3 0x276 JUMP JUMPDEST SWAP1 POP SWAP2 SWAP1 POP JUMP JUMPDEST PUSH0 DUP2 SWAP1 POP SWAP2 SWAP1 POP JUMP JUMPDEST PUSH3 0x2C3 DUP4 PUSH3 0x288 JUMP JUMPDEST PUSH3 0x2DB PUSH3 0x2D2 DUP3 PUSH3 0x2AF JUMP JUMPDEST DUP5 DUP5 SLOAD PUSH3 0x221 JUMP JUMPDEST DUP3 SSTORE POP POP POP POP JUMP JUMPDEST PUSH0 SWAP1 JUMP JUMPDEST PUSH3 0x2F1 PUSH3 0x2E3 JUMP JUMPDEST PUSH3 0x2FE DUP2 DUP5 DUP5 PUSH3 0x2B8 JUMP JUMPDEST POP POP POP JUMP JUMPDEST JUMPDEST DUP2 DUP2 LT ISZERO PUSH3 0x325 JUMPI PUSH3 0x319 PUSH0 DUP3 PUSH3 0x2E7 JUMP JUMPDEST PUSH1 0x1 DUP2 ADD SWAP1 POP PUSH3 0x304 JUMP JUMPDEST POP POP JUMP JUMPDEST PUSH1 0x1F DUP3 GT ISZERO PUSH3 0x374 JUMPI PUSH3 0x33E DUP2 PUSH3 0x1F4 JUMP JUMPDEST PUSH3 0x349 DUP5 PUSH3 0x206 JUMP JUMPDEST DUP2 ADD PUSH1 0x20 DUP6 LT ISZERO PUSH3 0x359 JUMPI DUP2 SWAP1 POP JUMPDEST PUSH3 0x371 PUSH3 0x368 DUP6 PUSH3 0x206 JUMP JUMPDEST DUP4 ADD DUP3 PUSH3 0x303 JUMP JUMPDEST POP POP JUMPDEST POP POP POP JUMP JUMPDEST PUSH0 DUP3 DUP3 SHR SWAP1 POP SWAP3 SWAP2 POP POP JUMP JUMPDEST PUSH0 PUSH3 0x396 PUSH0 NOT DUP5 PUSH1 0x8 MUL PUSH3 0x379 JUMP JUMPDEST NOT DUP1 DUP4 AND SWAP2 POP POP SWAP3 SWAP2 POP POP JUMP JUMPDEST PUSH0 PUSH3 0x3B0 DUP4 DUP4 PUSH3 0x385 JUMP JUMPDEST SWAP2 POP DUP3 PUSH1 0x2 MUL DUP3 OR SWAP1 POP SWAP3 SWAP2 POP POP JUMP JUMPDEST PUSH3 0x3CB DUP3 PUSH3 0x15C JUMP JUMPDEST PUSH8 0xFFFFFFFFFFFFFFFF DUP2 GT ISZERO PUSH3 0x3E7 JUMPI PUSH3 0x3E6 PUSH3 0x166 JUMP JUMPDEST JUMPDEST PUSH3 0x3F3 DUP3 SLOAD PUSH3 0x1C0 JUMP JUMPDEST PUSH3 0x400 DUP3 DUP3 DUP6 PUSH3 0x329 JUMP JUMPDEST PUSH0 PUSH1 0x20 SWAP1 POP PUSH1 0x1F DUP4 GT PUSH1 0x1 DUP2 EQ PUSH3 0x436 JUMPI PUSH0 DUP5 ISZERO PUSH3 0x421 JUMPI DUP3 DUP8 ADD MLOAD SWAP1 POP JUMPDEST PUSH3 0x42D DUP6 DUP3 PUSH3 0x3A3 JUMP JUMPDEST DUP7 SSTORE POP PUSH3 0x49C JUMP JUMPDEST PUSH1 0x1F NOT DUP5 AND PUSH3 0x446 DUP7 PUSH3 0x1F4 JUMP JUMPDEST PUSH0 JUMPDEST DUP3 DUP2 LT ISZERO PUSH3 0x46F JUMPI DUP5 DUP10 ADD MLOAD DUP3 SSTORE PUSH1 0x1 DUP3 ADD SWAP2 POP PUSH1 0x20 DUP6 ADD SWAP5 POP PUSH1 0x20 DUP2 ADD SWAP1 POP PUSH3 0x448 JUMP JUMPDEST DUP7 DUP4 LT ISZERO PUSH3 0x48F JUMPI DUP5 DUP10 ADD MLOAD PUSH3 0x48B PUSH1 0x1F DUP10 AND DUP3 PUSH3 0x385 JUMP JUMPDEST DUP4 SSTORE POP JUMPDEST PUSH1 0x1 PUSH1 0x2 DUP9 MUL ADD DUP9 SSTORE POP POP POP JUMPDEST POP POP POP POP POP POP JUMP JUMPDEST PUSH0 DUP1 REVERT JUMPDEST PUSH3 0x4B3 DUP2 PUSH3 0x276 JUMP JUMPDEST DUP2 EQ PUSH3 0x4BE JUMPI PUSH0 DUP1 REVERT JUMPDEST POP JUMP JUMPDEST PUSH0 DUP2 MLOAD SWAP1 POP PUSH3 0x4D1 DUP2 PUSH3 0x4A8 JUMP JUMPDEST SWAP3 SWAP2 POP POP JUMP JUMPDEST PUSH0 PUSH1 0x20 DUP3 DUP5 SUB SLT ISZERO PUSH3 0x4EF JUMPI PUSH3 0x4EE PUSH3 0x4A4 JUMP JUMPDEST JUMPDEST PUSH0 PUSH3 0x4FE DUP5 DUP3 DUP6 ADD PUSH3 0x4C1 JUMP JUMPDEST SWAP2 POP POP SWAP3 SWAP2 POP POP JUMP JUMPDEST PUSH32 0x4E487B7100000000000000000000000000000000000000000000000000000000 PUSH0 MSTORE PUSH1 0x11 PUSH1 0x4 MSTORE PUSH1 0x24 PUSH0 REVERT JUMPDEST PUSH0 DUP2 PUSH1 0x1 SHR SWAP1 POP SWAP2 SWAP1 POP JUMP JUMPDEST PUSH0 DUP1 DUP3 SWAP2 POP DUP4 SWAP1 POP JUMPDEST PUSH1 0x1 DUP6 GT ISZERO PUSH3 0x591 JUMPI DUP1 DUP7 DIV DUP2 GT ISZERO PUSH3 0x569 JUMPI PUSH3 0x568 PUSH3 0x507 JUMP JUMPDEST JUMPDEST PUSH1 0x1 DUP6 AND ISZERO PUSH3 0x579 JUMPI DUP1 DUP3 MUL SWAP2 POP JUMPDEST DUP1 DUP2 MUL SWAP1 POP PUSH3 0x589 DUP6 PUSH3 0x534 JUMP JUMPDEST SWAP5 POP PUSH3 0x549 JUMP JUMPDEST SWAP5 POP SWAP5 SWAP3 POP POP POP JUMP JUMPDEST PUSH0 DUP3 PUSH3 0x5AB JUMPI PUSH1 0x1 SWAP1 POP PUSH3 0x67D JUMP JUMPDEST DUP2 PUSH3 0x5BA JUMPI PUSH0 SWAP1 POP PUSH3 0x67D JUMP JUMPDEST DUP2 PUSH1 0x1 DUP2 EQ PUSH3 0x5D3 JUMPI PUSH1 0x2 DUP2 EQ PUSH3 0x5DE JUMPI PUSH3 0x614 JUMP JUMPDEST PUSH1 0x1 SWAP2 POP POP PUSH3 0x67D JUMP JUMPDEST PUSH1 0xFF DUP5 GT ISZERO PUSH3 0x5F3 JUMPI PUSH3 0x5F2 PUSH3 0x507 JUMP JUMPDEST JUMPDEST DUP4 PUSH1 0x2 EXP SWAP2 POP DUP5 DUP3 GT ISZERO PUSH3 0x60D JUMPI PUSH3 0x60C PUSH3 0x507 JUMP JUMPDEST JUMPDEST POP PUSH3 0x67D JUMP JUMPDEST POP PUSH1 0x20 DUP4 LT PUSH2 0x133 DUP4 LT AND PUSH1 0x4E DUP5 LT PUSH1 0xB DUP5 LT AND OR ISZERO PUSH3 0x64E JUMPI DUP3 DUP3 EXP SWAP1 POP DUP4 DUP2 GT ISZERO PUSH3 0x648 JUMPI PUSH3 0x647 PUSH3 0x507 JUMP JUMPDEST JUMPDEST PUSH3 0x67D JUMP JUMPDEST PUSH3 0x65D DUP5 DUP5 DUP5 PUSH1 0x1 PUSH3 0x540 JUMP JUMPDEST SWAP3 POP SWAP1 POP DUP2 DUP5 DIV DUP2 GT ISZERO PUSH3 0x677 JUMPI PUSH3 0x676 PUSH3 0x507 JUMP JUMPDEST JUMPDEST DUP2 DUP2 MUL SWAP1 POP JUMPDEST SWAP4 SWAP3 POP POP POP JUMP JUMPDEST PUSH0 PUSH3 0x690 DUP3 PUSH3 0x276 JUMP JUMPDEST SWAP2 POP PUSH3 0x69D DUP4 PUSH3 0x276 JUMP JUMPDEST SWAP3 POP PUSH3 0x6CC PUSH32 0xFFFFFFFFFFFFFFFFFFFFFFFFFFFFFFFFFFFFFFFFFFFFFFFFFFFFFFFFFFFFFFFF DUP5 DUP5 PUSH3 0x59A JUMP JUMPDEST SWAP1 POP SWAP3 SWAP2 POP POP JUMP JUMPDEST PUSH0 PUSH3 0x6E0 DUP3 PUSH3 0x276 JUMP JUMPDEST SWAP2 POP PUSH3 0x6ED DUP4 PUSH3 0x276 JUMP JUMPDEST SWAP3 POP DUP3 DUP3 MUL PUSH3 0x6FD DUP2 PUSH3 0x276 JUMP JUMPDEST SWAP2 POP DUP3 DUP3 DIV DUP5 EQ DUP4 ISZERO OR PUSH3 0x717 JUMPI PUSH3 0x716 PUSH3 0x507 JUMP JUMPDEST JUMPDEST POP SWAP3 SWAP2 POP POP JUMP JUMPDEST PUSH2 0x7D7 DUP1 PUSH3 0x72C PUSH0 CODECOPY PUSH0 RETURN INVALID PUSH1 0x80 PUSH1 0x40 MSTORE CALLVALUE DUP1 ISZERO PUSH2 0xF JUMPI PUSH0 DUP1 REVERT JUMPDEST POP PUSH1 0x4 CALLDATASIZE LT PUSH2 0x60 JUMPI PUSH0 CALLDATALOAD PUSH1 0xE0 SHR DUP1 PUSH4 0x6FDDE03 EQ PUSH2 0x64 JUMPI DUP1 PUSH4 0x18160DDD EQ PUSH2 0x82 JUMPI DUP1 PUSH4 0x313CE567 EQ PUSH2 0xA0 JUMPI DUP1 PUSH4 0x70A08231 EQ PUSH2 0xBE JUMPI DUP1 PUSH4 0x95D89B41 EQ PUSH2 0xEE JUMPI DUP1 PUSH4 0xA9059CBB EQ PUSH2 0x10C JUMPI JUMPDEST PUSH0 DUP1 REVERT JUMPDEST PUSH2 0x6C PUSH2 0x13C JUMP JUMPDEST PUSH1 0x40 MLOAD PUSH2 0x79 SWAP2 SWAP1 PUSH2 0x4A0 JUMP JUMPDEST PUSH1 0x40 MLOAD DUP1 SWAP2 SUB SWAP1 RETURN JUMPDEST PUSH2 0x8A PUSH2 0x1C7 JUMP JUMPDEST PUSH1 0x40 MLOAD PUSH2 0x97 SWAP2 SWAP1 PUSH2 0x4D8 JUMP JUMPDEST PUSH1 0x40 MLOAD DUP1 SWAP2 SUB SWAP1 RETURN JUMPDEST PUSH2 0xA8 PUSH2 0x1CD JUMP JUMPDEST PUSH1 0x40 MLOAD PUSH2 0xB5 SWAP2 SWAP1 PUSH2 0x50C JUMP JUMPDEST PUSH1 0x40 MLOAD DUP1 SWAP2 SUB SWAP1 RETURN JUMPDEST PUSH2 0xD8 PUSH1 0x4 DUP1 CALLDATASIZE SUB DUP2 ADD SWAP1 PUSH2 0xD3 SWAP2 SWAP1 PUSH2 0x583 JUMP JUMPDEST PUSH2 0x1DF JUMP JUMPDEST PUSH1 0x40 MLOAD PUSH2 0xE5 SWAP2 SWAP1 PUSH2 0x4D8 JUMP JUMPDEST PUSH1 0x40 MLOAD DUP1 SWAP2 SUB SWAP1 RETURN JUMPDEST PUSH2 0xF6 PUSH2 0x1F4 JUMP JUMPDEST PUSH1 0x40 MLOAD PUSH2 0x103 SWAP2 SWAP1 PUSH2 0x4A0 JUMP JUMPDEST PUSH1 0x40 MLOAD DUP1 SWAP2 SUB SWAP1 RETURN JUMPDEST PUSH2 0x126 PUSH1 0x4 DUP1 CALLDATASIZE SUB DUP2 ADD SWAP1 PUSH2 0x121 SWAP2 SWAP1 PUSH2 0x5D8 JUMP JUMPDEST PUSH2 0x280 JUMP JUMPDEST PUSH1 0x40 MLOAD PUSH2 0x133 SWAP2 SWAP1 PUSH2 0x630 JUMP JUMPDEST PUSH1 0x40 MLOAD DUP1 SWAP2 SUB SWAP1 RETURN JUMPDEST PUSH0 DUP1 SLOAD PUSH2 0x148 SWAP1 PUSH2 0x676 JUMP JUMPDEST DUP1 PUSH1 0x1F ADD PUSH1 0x20 DUP1 SWAP2 DIV MUL PUSH1 0x20 ADD PUSH1 0x40 MLOAD SWAP1 DUP2 ADD PUSH1 0x40 MSTORE DUP1 SWAP3 SWAP2 SWAP1 DUP2 DUP2 MSTORE PUSH1 0x20 ADD DUP3 DUP1 SLOAD PUSH2 0x174 SWAP1 PUSH2 0x676 JUMP JUMPDEST DUP1 ISZERO PUSH2 0x1BF JUMPI DUP1 PUSH1 0x1F LT PUSH2 0x196 JUMPI PUSH2 0x100 DUP1 DUP4 SLOAD DIV MUL DUP4 MSTORE SWAP2 PUSH1 0x20 ADD SWAP2 PUSH2 0x1BF JUMP JUMPDEST DUP3 ADD SWAP2 SWAP1 PUSH0 MSTORE PUSH1 0x20 PUSH0 KECCAK256 SWAP1 JUMPDEST DUP2 SLOAD DUP2 MSTORE SWAP1 PUSH1 0x1 ADD SWAP1 PUSH1 0x20 ADD DUP1 DUP4 GT PUSH2 0x1A2 JUMPI DUP3 SWAP1 SUB PUSH1 0x1F AND DUP3 ADD SWAP2 JUMPDEST POP POP POP POP POP DUP2 JUMP JUMPDEST PUSH1 0x3 SLOAD DUP2 JUMP JUMPDEST PUSH1 0x2 PUSH0 SWAP1 SLOAD SWAP1 PUSH2 0x100 EXP SWAP1 DIV PUSH1 0xFF AND DUP2 JUMP JUMPDEST PUSH1 0x4 PUSH1 0x20 MSTORE DUP1 PUSH0 MSTORE PUSH1 0x40 PUSH0 KECCAK256 PUSH0 SWAP2 POP SWAP1 POP SLOAD DUP2 JUMP JUMPDEST PUSH1 0x1 DUP1 SLOAD PUSH2 0x201 SWAP1 PUSH2 0x676 JUMP JUMPDEST DUP1 PUSH1 0x1F ADD PUSH1 0x20 DUP1 SWAP2 DIV MUL PUSH1 0x20 ADD PUSH1 0x40 MLOAD SWAP1 DUP2 ADD PUSH1 0x40 MSTORE DUP1 SWAP3 SWAP2 SWAP1 DUP2 DUP2 MSTORE PUSH1 0x20 ADD DUP3 DUP1 SLOAD PUSH2 0x22D SWAP1 PUSH2 0x676 JUMP JUMPDEST DUP1 ISZERO PUSH2 0x278 JUMPI DUP1 PUSH1 0x1F LT PUSH2 0x24F JUMPI PUSH2 0x100 DUP1 DUP4 SLOAD DIV MUL DUP4 MSTORE SWAP2 PUSH1 0x20 ADD SWAP2 PUSH2 0x278 JUMP JUMPDEST DUP3 ADD SWAP2 SWAP1 PUSH0 MSTORE PUSH1 0x20 PUSH0 KECCAK256 SWAP1 JUMPDEST DUP2 SLOAD DUP2 MSTORE SWAP1 PUSH1 0x1 ADD SWAP1 PUSH1 0x20 ADD DUP1 DUP4 GT PUSH2 0x25B JUMPI DUP3 SWAP1 SUB PUSH1 0x1F AND DUP3 ADD SWAP2 JUMPDEST POP POP POP POP POP DUP2 JUMP JUMPDEST PUSH0 DUP2 PUSH1 0x4 PUSH0 CALLER PUSH20 0xFFFFFFFFFFFFFFFFFFFFFFFFFFFFFFFFFFFFFFFF AND PUSH20 0xFFFFFFFFFFFFFFFFFFFFFFFFFFFFFFFFFFFFFFFF AND DUP2 MSTORE PUSH1 0x20 ADD SWAP1 DUP2 MSTORE PUSH1 0x20 ADD PUSH0 KECCAK256 SLOAD LT ISZERO PUSH2 0x301 JUMPI PUSH1 0x40 MLOAD PUSH32 0x8C379A000000000000000000000000000000000000000000000000000000000 DUP2 MSTORE PUSH1 0x4 ADD PUSH2 0x2F8 SWAP1 PUSH2 0x6F0 JUMP JUMPDEST PUSH1 0x40 MLOAD DUP1 SWAP2 SUB SWAP1 REVERT JUMPDEST DUP2 PUSH1 0x4 PUSH0 CALLER PUSH20 0xFFFFFFFFFFFFFFFFFFFFFFFFFFFFFFFFFFFFFFFF AND PUSH20 0xFFFFFFFFFFFFFFFFFFFFFFFFFFFFFFFFFFFFFFFF AND DUP2 MSTORE PUSH1 0x20 ADD SWAP1 DUP2 MSTORE PUSH1 0x20 ADD PUSH0 KECCAK256 PUSH0 DUP3 DUP3 SLOAD PUSH2 0x34D SWAP2 SWAP1 PUSH2 0x73B JUMP JUMPDEST SWAP3 POP POP DUP2 SWAP1 SSTORE POP DUP2 PUSH1 0x4 PUSH0 DUP6 PUSH20 0xFFFFFFFFFFFFFFFFFFFFFFFFFFFFFFFFFFFFFFFF AND PUSH20 0xFFFFFFFFFFFFFFFFFFFFFFFFFFFFFFFFFFFFFFFF AND DUP2 MSTORE PUSH1 0x20 ADD SWAP1 DUP2 MSTORE PUSH1 0x20 ADD PUSH0 KECCAK256 PUSH0 DUP3 DUP3 SLOAD PUSH2 0x3A0 SWAP2 SWAP1 PUSH2 0x76E JUMP JUMPDEST SWAP3 POP POP DUP2 SWAP1 SSTORE POP DUP3 PUSH20 0xFFFFFFFFFFFFFFFFFFFFFFFFFFFFFFFFFFFFFFFF AND CALLER PUSH20 0xFFFFFFFFFFFFFFFFFFFFFFFFFFFFFFFFFFFFFFFF AND PUSH32 0xDDF252AD1BE2C89B69C2B068FC378DAA952BA7F163C4A11628F55A4DF523B3EF DUP5 PUSH1 0x40 MLOAD PUSH2 0x404 SWAP2 SWAP1 PUSH2 0x4D8 JUMP JUMPDEST PUSH1 0x40 MLOAD DUP1 SWAP2 SUB SWAP1 LOG3 PUSH1 0x1 SWAP1 POP SWAP3 SWAP2 POP POP JUMP JUMPDEST PUSH0 DUP2 MLOAD SWAP1 POP SWAP2 SWAP1 POP JUMP JUMPDEST PUSH0 DUP3 DUP3 MSTORE PUSH1 0x20 DUP3 ADD SWAP1 POP SWAP3 SWAP2 POP POP JUMP JUMPDEST PUSH0 JUMPDEST DUP4 DUP2 LT ISZERO PUSH2 0x44D JUMPI DUP1 DUP3 ADD MLOAD DUP2 DUP5 ADD MSTORE PUSH1 0x20 DUP2 ADD SWAP1 POP PUSH2 0x432 JUMP JUMPDEST PUSH0 DUP5 DUP5 ADD MSTORE POP POP POP POP JUMP JUMPDEST PUSH0 PUSH1 0x1F NOT PUSH1 0x1F DUP4 ADD AND SWAP1 POP SWAP2 SWAP1 POP JUMP JUMPDEST PUSH0 PUSH2 0x472 DUP3 PUSH2 0x416 JUMP JUMPDEST PUSH2 0x47C DUP2 DUP6 PUSH2 0x420 JUMP JUMPDEST SWAP4 POP PUSH2 0x48C DUP2 DUP6 PUSH1 0x20 DUP7 ADD PUSH2 0x430 JUMP JUMPDEST PUSH2 0x495 DUP2 PUSH2 0x458 JUMP JUMPDEST DUP5 ADD SWAP2 POP POP SWAP3 SWAP2 POP POP JUMP JUMPDEST PUSH0 PUSH1 0x20 DUP3 ADD SWAP1 POP DUP2 DUP2 SUB PUSH0 DUP4 ADD MSTORE PUSH2 0x4B8 DUP2 DUP5 PUSH2 0x468 JUMP JUMPDEST SWAP1 POP SWAP3 SWAP2 POP POP JUMP JUMPDEST PUSH0 DUP2 SWAP1 POP SWAP2 SWAP1 POP JUMP JUMPDEST PUSH2 0x4D2 DUP2 PUSH2 0x4C0 JUMP JUMPDEST DUP3 MSTORE POP POP JUMP JUMPDEST PUSH0 PUSH1 0x20 DUP3 ADD SWAP1 POP PUSH2 0x4EB PUSH0 DUP4 ADD DUP5 PUSH2 0x4C9 JUMP JUMPDEST SWAP3 SWAP2 POP POP JUMP JUMPDEST PUSH0 PUSH1 0xFF DUP3 AND SWAP1 POP SWAP2 SWAP1 POP JUMP JUMPDEST PUSH2 0x506 DUP2 PUSH2 0x4F1 JUMP JUMPDEST DUP3 MSTORE POP POP JUMP JUMPDEST PUSH0 PUSH1 0x20 DUP3 ADD SWAP1 POP PUSH2 0x51F PUSH0 DUP4 ADD DUP5 PUSH2 0x4FD JUMP JUMPDEST SWAP3 SWAP2 POP POP JUMP JUMPDEST PUSH0 DUP1 REVERT JUMPDEST PUSH0 PUSH20 0xFFFFFFFFFFFFFFFFFFFFFFFFFFFFFFFFFFFFFFFF DUP3 AND SWAP1 POP SWAP2 SWAP1 POP JUMP JUMPDEST PUSH0 PUSH2 0x552 DUP3 PUSH2 0x529 JUMP JUMPDEST SWAP1 POP SWAP2 SWAP1 POP JUMP JUMPDEST PUSH2 0x562 DUP2 PUSH2 0x548 JUMP JUMPDEST DUP2 EQ PUSH2 0x56C JUMPI PUSH0 DUP1 REVERT JUMPDEST POP JUMP JUMPDEST PUSH0 DUP2 CALLDATALOAD SWAP1 POP PUSH2 0x57D DUP2 PUSH2 0x559 JUMP JUMPDEST SWAP3 SWAP2 POP POP JUMP JUMPDEST PUSH0 PUSH1 0x20 DUP3 DUP5 SUB SLT ISZERO PUSH2 0x598 JUMPI PUSH2 0x597 PUSH2 0x525 JUMP JUMPDEST JUMPDEST PUSH0 PUSH2 0x5A5 DUP5 DUP3 DUP6 ADD PUSH2 0x56F JUMP JUMPDEST SWAP2 POP POP SWAP3 SWAP2 POP POP JUMP JUMPDEST PUSH2 0x5B7 DUP2 PUSH2 0x4C0 JUMP JUMPDEST DUP2 EQ PUSH2 0x5C1 JUMPI PUSH0 DUP1 REVERT JUMPDEST POP JUMP JUMPDEST PUSH0 DUP2 CALLDATALOAD SWAP1 POP PUSH2 0x5D2 DUP2 PUSH2 0x5AE JUMP JUMPDEST SWAP3 SWAP2 POP POP JUMP JUMPDEST PUSH0 DUP1 PUSH1 0x40 DUP4 DUP6 SUB SLT ISZERO PUSH2 0x5EE JUMPI PUSH2 0x5ED PUSH2 0x525 JUMP JUMPDEST JUMPDEST PUSH0 PUSH2 0x5FB DUP6 DUP3 DUP7 ADD PUSH2 0x56F JUMP JUMPDEST SWAP3 POP POP PUSH1 0x20 PUSH2 0x60C DUP6 DUP3 DUP7 ADD PUSH2 0x5C4 JUMP JUMPDEST SWAP2 POP POP SWAP3 POP SWAP3 SWAP1 POP JUMP JUMPDEST PUSH0 DUP2 ISZERO ISZERO SWAP1 POP SWAP2 SWAP1 POP JUMP JUMPDEST PUSH2 0x62A DUP2 PUSH2 0x616 JUMP JUMPDEST DUP3 MSTORE POP POP JUMP JUMPDEST PUSH0 PUSH1 0x20 DUP3 ADD SWAP1 POP PUSH2 0x643 PUSH0 DUP4 ADD DUP5 PUSH2 0x621 JUMP JUMPDEST SWAP3 SWAP2 POP POP JUMP JUMPDEST PUSH32 0x4E487B7100000000000000000000000000000000000000000000000000000000 PUSH0 MSTORE PUSH1 0x22 PUSH1 0x4 MSTORE PUSH1 0x24 PUSH0 REVERT JUMPDEST PUSH0 PUSH1 0x2 DUP3 DIV SWAP1 POP PUSH1 0x1 DUP3 AND DUP1 PUSH2 0x68D JUMPI PUSH1 0x7F DUP3 AND SWAP2 POP JUMPDEST PUSH1 0x20 DUP3 LT DUP2 SUB PUSH2 0x6A0 JUMPI PUSH2 0x69F PUSH2 0x649 JUMP JUMPDEST JUMPDEST POP SWAP2 SWAP1 POP JUMP JUMPDEST PUSH32 0x4E6F7420656E6F75676820746F6B656E73000000000000000000000000000000 PUSH0 DUP3 ADD MSTORE POP JUMP JUMPDEST PUSH0 PUSH2 0x6DA PUSH1 0x11 DUP4 PUSH2 0x420 JUMP JUMPDEST SWAP2 POP PUSH2 0x6E5 DUP3 PUSH2 0x6A6 JUMP JUMPDEST PUSH1 0x20 DUP3 ADD SWAP1 POP SWAP2 SWAP1 POP JUMP JUMPDEST PUSH0 PUSH1 0x20 DUP3 ADD SWAP1 POP DUP2 DUP2 SUB PUSH0 DUP4 ADD MSTORE PUSH2 0x707 DUP2 PUSH2 0x6CE JUMP JUMPDEST SWAP1 POP SWAP2 SWAP1 POP JUMP JUMPDEST PUSH32 0x4E487B7100000000000000000000000000000000000000000000000000000000 PUSH0 MSTORE PUSH1 0x11 PUSH1 0x4 MSTORE PUSH1 0x24 PUSH0 REVERT JUMPDEST PUSH0 PUSH2 0x745 DUP3 PUSH2 0x4C0 JUMP JUMPDEST SWAP2 POP PUSH2 0x750 DUP4 PUSH2 0x4C0 JUMP JUMPDEST SWAP3 POP DUP3 DUP3 SUB SWAP1 POP DUP2 DUP2 GT ISZERO PUSH2 0x768 JUMPI PUSH2 0x767 PUSH2 0x70E JUMP JUMPDEST JUMPDEST SWAP3 SWAP2 POP POP JUMP JUMPDEST PUSH0 PUSH2 0x778 DUP3 PUSH2 0x4C0 JUMP JUMPDEST SWAP2 POP PUSH2 0x783 DUP4 PUSH2 0x4C0 JUMP JUMPDEST SWAP3 POP DUP3 DUP3 ADD SWAP1 POP DUP1 DUP3 GT ISZERO PUSH2 0x79B JUMPI PUSH2 0x79A PUSH2 0x70E JUMP JUMPDEST JUMPDEST SWAP3 SWAP2 POP POP JUMP INVALID LOG2 PUSH5 0x6970667358 0x22 SLT KECCAK256 0xDD 0xB3 0xE7 0xF8 0xB5 0xB9 0xC 0x1F DUP16 0xB1 0xDB SWAP1 0xB1 POP BASEFEE 0xBD 0xCB DUP4 JUMP 0xDD INVALID 0x25 0xFC DUP11 0xF 0xFC CREATE 0x29 0x24 DUP11 0xCD PUSH9 0x64736F6C6343000814 STOP CALLER "},"methodIdentifiers":{"balanceOf(address)":"70a08231","decimals()":"313ce567","name()":"06fdde03","symbol()":"95d89b41","totalSupply()":"18160ddd","transfer(address,uint256)":"a9059cbb"}}}}}